:020000040800F2
:1000000040520020F90200086F1F00082D1C000854
:100010006D1F00086F060008EB27000800000000B5
:10002000000000000000000000000000390200088D
:10003000710600080000000095020008ED2200088B
:100040001303000813030008130300081303000838
:100050001303000813030008130300081303000828
:100060001303000813030008130300081303000818
:100070001303000813030008130300081303000808
:100080001303000813030008130300080000000016
:100090000000000000000000000000001303000842
:1000A00013030008130300081303000813030008D8
:1000B00013030008130300081303000813030008C8
:1000C00013030008130300081303000813030008B8
:1000D00013030008130300081303000800000000C6
:1000E00013030008130300081303000800000000B6
:1000F00000000000000000000000000013030008E2
:100100000000000013030008A923000813030008DF
:1001100000000000000000000000000000000000DF
:100120001303000813030008130300081303000857
:1001300013030008000000000000000000000000A1
:100140000000000000000000000000001303000891
:100150001303000813030008130300081303000827
:100160001303000813030008000000000000000053
:10017000000000000000000000000000000000007F
:100180000000000013030008000000000000000051
:10019000130300081303000800F002F800F03CF815
:1001A0000AA090E8000C82448344AAF10107DA45D2
:1001B00001D100F031F8AFF2090EBAE80F0013F0E8
:1001C000010F18BFFB1A43F0010318474C3F000012
:1001D0006C3F0000103A24BF78C878C1FAD85207A3
:1001E00024BF30C830C144BF04680C6070470000B1
:1001F0000023002400250026103A28BF78C1FBD830
:10020000520728BF30C148BF0B6070471FB503F0CD
:1002100059FF1FBD10B510BD00F0EFF91146FFF7F3
:10022000F5FF02F0F3FA00F00DFA03B4FFF7F2FF66
:1002300003BC00F015FA00002C4B19680868B0E800
:10024000F04F80F30988BFF36F8F4FF0000080F309
:10025000118870470000000008480068006880F3BB
:1002600008884FF0000080F3148862B661B6BFF3CF
:100270004F8FBFF36F8F00DF00BF00BF08ED00E0BE
:10028000DFF80C00016841F470010160704700BFA5
:1002900088ED00E0EFF30980BFF36F8F134B1A680E
:1002A0001EF0100F08BF20ED108A20E9F04F1060FB
:1002B00009B44FF0500080F31188BFF34F8FBFF3A4
:1002C0006F8F03F0D1F94FF0000080F3118809BC63
:1002D00019680868B0E8F04F1EF0100F08BFB0ECC6
:1002E000108A80F30988BFF36F8F704714000020D5
:1002F000EFF3058070470000094880470948004730
:10030000FEE7FEE7FEE7FEE7FEE7FEE7FEE7FEE7C5
:10031000FEE7FEE704480549054A064B7047000022
:100320009923000899010008404C00204052002009
:10033000404E0020404E002053EA020C00F069803D
:100340002DE9F04B4FF00006002B1FBFB3FA83F5E9
:1003500003FA05F424FA05F65E4012BF1643B2FA1A
:1003600082F502FA05F4C5F120051EBF22FA05FC4C
:1003700044EA0C04203556EA044C4FEA144418BFF2
:10038000641C4FF000084FF00009904271EB030C21
:1003900039D3002919BFB1FA81F701FA07F6B0FA8B
:1003A00080F700FA07F6C7F120071EBF20FA07FC06
:1003B00046EA0C062037B6FBF4FCA7EB0507103F16
:1003C00007F01F0BCBF120060CFA0BFB2CFA06F6FC
:1003D00044BFB3460026202FA4BF5E464FF0000B5B
:1003E0005BEA060C08BF4FF0010B19EB0B09ABFBE6
:1003F000027C48EB0608C01B06FB02CC0BFB03CCBF
:1004000071EB0C01C1E70B46024641464846BDE888
:10041000F08B13B54FF000004FF00001AFF30080F8
:10042000BDE81C40704710B5431C02E010F8011BEA
:1004300071B18107FAD14FF0013202C88C1A8C4396
:1004400014EAC211F9D0C01A0A0603D0C01E10BDAA
:10045000C01A10BD0A0401D0801E10BD0902FCD0D4
:10046000401E10BD032A40F2308010F0030C00F053
:10047000158011F8013BBCF1020F624498BF11F8DE
:1004800001CB00F8013B38BF11F8013BA2F1040297
:1004900098BF00F801CB38BF00F8013B11F003030F
:1004A00000F05780083AC0F0088051F8043B083A41
:1004B00051F804CBA0E80810F5E7121D5CBF51F815
:1004C000043B40F8043BAFF30080D20724BF11F88F
:1004D000013B11F801CB48BF11F8012B24BF00F8F4
:1004E000013B00F801CB48BF00F8012B704702F038
:1004F000FF0343EA032242EA024200F05EB84FF0F3
:10050000000200B5134694469646203922BFA0E863
:100510000C50A0E80C50B1F12001BFF4F7AF09076F
:1005200028BFA0E80C5048BF0CC05DF804EB890060
:1005300028BF40F8042B08BF704748BF20F8022BA3
:1005400011F0804F18BF00F8012B704770477047BB
:10055000704710B5203AC0F00B80B1E81850203A2F
:10056000A0E81850B1E81850A0E81850BFF4F5AF53
:100570005FEA027C24BFB1E81850A0E8185044BFDD
:1005800018C918C0BDE810405FEA827C24BF51F84A
:10059000043B40F8043B08BF7047D20728BF31F83E
:1005A000023B48BF11F8012B28BF20F8023B48BF8F
:1005B00000F8012B70474FF000020429C0F01280B0
:1005C00010F0030C3FF49DAFCCF1040CBCF1020F12
:1005D00018BF00F8012BA8BF20F8022BA1EB0C01DB
:1005E000FFF78FBF5FEAC17C24BF00F8012B00F842
:1005F000012B48BF00F8012B7047754600F02CF81E
:10060000AE4605006946534620F00700854618B0FF
:1006100020B5FFF77FFEBDE820404FF000064FF009
:1006200000074FF000084FF0000B21F00701AC4627
:10063000ACE8C009ACE8C009ACE8C009ACE8C00946
:100640008D46704710B50446AFF300802046BDE8E4
:100650001040FFF7EABD000000487047E04B002063
:1006600001491820ABBEFEE7260002007047FEE7F6
:10067000704772B6FEE7000070B5044600F004F95A
:100680000546601C02D004480078044400F0FCF8E1
:10069000401BA042FAD370BD040000202DE9F84FA2
:1006A000DFF8B8A10022012403254FF00F090AF159
:1006B000040BAAF1040E00BF0B6804FA02F63340E3
:1006C000B34273D10F7907F00307012F01D0022F36
:1006D00016D187684FEA420805FA08FC27EA0C079A
:1006E000D1F80CC00CFA08FC4CEA070CC0F808C0A2
:1006F0004768B7430E79C6F3001696403E434660FE
:100700000E79F643B6070DD0C768560005FA06FC09
:1007100027EA0C07D1F808C00CFA06FC4CEA070CD3
:10072000C0F80CC00E7906F00306022E10D1D608D0
:1007300000EB8608D8F8206057074FEAD76C09FA13
:100740000CF7BE430F6907FA0CF73743C8F820705F
:1007500006684FEA420C05FA0CF7BE430F7907F022
:10076000030707FA0CF7374307604E6816F4403F5B
:100770006DD03B4E376847F480473760366822F0CB
:10078000030706F480460096364E07EB060CDCF8AD
:10079000086897073F0F09FA07F826EA0806DFF806
:1007A000C880404503D14FF000081EE04FE0DFF85D
:1007B000BC80404502D14FF0010816E0DFF8B08060
:1007C000404502D14FF002080FE0DFF8A880404515
:1007D00002D14FF0030808E0DFF89C80404502D1C9
:1007E0004FF0040801E04FF0070808FA07F848EA5C
:1007F0000608CCF80888DAF800605746D1F804C03B
:100800009E435FEACC2C00D51E433E60DBF80060BF
:100810005F46D1F804C09E435FEA8C2C00D51E438E
:100820003E60DEF800607746D1F804C09E435FEA80
:100830008C3C00D51E433E60084F083F3E68D1F80F
:1008400004C09E435FEACC3C00D51E433E60521C70
:10085000102AFFF431AFBDE8F88F0000083C0140DA
:1008600044380240003001400000024000040240D1
:1008700000080240000C0240001002400AB18161F1
:1008800070470904FBE700000148806870470000DA
:100890000400002070B5040025D094F83D00002528
:1008A00020B984F83C50204600F0B8F8242084F8A1
:1008B0003D002068016821F00101016020680168A5
:1008C00041F4004101602068016821F400410160A9
:1008D00000F08CFA4D4A6168914201D84C4900E021
:1008E0004C49884201D2012070BD4B492368B0FBBE
:1008F000F1F15E6826F03F060E435E606368934246
:1009000006D94FF4967359434FF47A73B1FBF3F160
:100910002368491C1E6A26F03F063143196261684C
:10092000914210D84900401EB0FBF1F2521CC2F3B4
:100930000B02042A01D2042022E0B0FBF1F0401C9B
:10094000C0F30B001CE0A268F2B301EBC10303EBA0
:100950000116431EB3FBF6F35B1C43F480431B05F7
:1009600049D092B301EBC10202EB0111401EB0FB72
:10097000F1F0401CC0F30B0040F4804040F4004014
:100980002168CA694CF6FF739A431043C861D4E9E1
:10099000071001432068026822F0C0021143016081
:1009A000D4E9030101432068826848F2FF339A4387
:1009B00011438160D4E9050108432168CA6822F027
:1009C000FF021043C86001E00EE016E020680168F5
:1009D00041F0010101602564202084F83D00256379
:1009E00084F83E50002070BD01EB4106431EB3FB6E
:1009F000F6F35B1CB3E70120C2E701EB4101401EA7
:100A0000B0FBF1F0401CC0F30B00B7E7A08601007B
:100A100080841E0000093D0040420F002DE9F04196
:100A200086B0044614216846FFF769FD23682A4C06
:100A3000DFF8A0C0002528491226032704222748F2
:100A40001034634518D10B6843F002030B6009684A
:100A5000029501F002010591C021CDE90016CDE912
:100A600003726946FFF71AFE206840F40010206008
:100A7000206800F4001028E0DFF864C0634525D149
:100A80000B6843F002030B600968029501F0020154
:100A900005914FF48061CDE90016CDE903726946F6
:100AA0008046FFF7FBFD0820CDE9000602950920EE
:100AB000CDE9037069464046FFF7F0FD206840F439
:100AC00080002060206800F48000059006B0BDE83A
:100AD000F081000000540040303802400004024021
:100AE00000580040024881680278114481607047D4
:100AF000040000200B4810B5016841F4007101604A
:100B0000016841F480610160016841F48071016015
:100B1000032000F09FF80F2000F006F800F050F8D6
:100B2000002010BD003C024030B505461F4887B08C
:100B30000024016841F008010160006806A900F086
:100B40000800009001A800F031F90498A8B100F065
:100B50004DF940001649174AB0FBF1F11648491EFD
:100B6000026040F2E732C0E90324C0E90114846165
:100B700000F0EEFC040003D015E000F037F9E9E7DF
:100B80000D4800F025FD04000DD1322000F034F8AE
:100B9000102D07D200222946322000F03BF80748EA
:100BA000056000E0012407B0204630BD4038024017
:100BB00040420F00000C0040C4020020080000204A
:100BC0000C4882B0016841F480410160006800F483
:100BD000804000900748001F016841F0805101608B
:100BE0000068002200F0805000900F21901E02B09B
:100BF00000F010B844380240002809DB00F01F0262
:100C0000012191404009800000F1E020C0F800116E
:100C100070470000F0B40E4B1B680C46C3F3022370
:100C2000C3F10705042D00D90425191D072901D298
:100C3000002300E0DB1E012606FA05F1491E2140D3
:100C400099409E40761E16403143F0BC01F0CEBD67
:100C50000CED00E0064900F0070208684FF6FF03BC
:100C6000184040EA0220034A104308607047000021
:100C70000CED00E00000FA052DE9F0470E460500F6
:100C800065D0DFF81481D8F80000F7B200F0070053
:100C9000B04207D288F80070D8F8000000F00700D2
:100CA000B04254D128683D4C810712D5400703D586
:100CB000206840F4E05020602878000703D52068C1
:100CC00040F4604020602068A96820F0F0000843EC
:100CD00020602878C0072DD030496868083901287D
:100CE00012D0022813D0032811D0096889070029DF
:100CF0002DDA216821F0030101432160FFF7C4FDD3
:100D0000814641F2883A0EE009688903EFE70968F5
:100D10008901ECE7FFF7B8FDA0EB0901514502D9C5
:100D20000320BDE8F0872068696800F00C00B0EB94
:100D3000810FEFD1D8F80010404601F00701B14211
:100D400007D90770006800F00700B04201D0012009
:100D5000E7E72878400705D52068E96820F4E050E7
:100D6000084320602878000706D52068296920F408
:100D7000604040EAC100206000F058F82168084A4D
:100D8000C1F30311515CC840064908600648006879
:100D9000FFF7CAFE0020C4E7003C024008380240CA
:100DA000F440000810000020080000200F2202601C
:100DB0000C4A136803F003034360136803F0F00365
:100DC0008360136803F4E053C36012684FF4E05388
:100DD00003EAD20202610448006800F007000860DC
:100DE0007047000008380240003C024004480549B2
:100DF00000680968044AC1F38221515CC840704709
:100E00001000002008380240044100080448054949
:100E100000680968044AC1F34231515CC840704718
:100E2000100000200838024004410008154810B5A1
:100E3000006810F00C02144813D01449042A0FD093
:100E4000082A0ED10F4C241F2268236802F03F02AB
:100E50005B0207D52068C0F38810A0FB010106E003
:100E6000084610BD2168C1F38811A1FB00010023D1
:100E7000FFF762FA2168C1F30141491C4900B0FB48
:100E8000F1F010BD083802400024F40040787D01E4
:100E90002DE9F84F04006ED02078DFF84C93C0079E
:100EA000A9F104054AD009F104000168C1F38101E8
:100EB000012908D00068C0F3810002280AD1D9F8BE
:100EC0000000400206D52868800337D560680028F6
:100ED000E1D033E06068B0F5803F10D0B0F5A02FCE
:100EE000286810D020F480302860286820F4802002
:100EF00028606068A8B1FFF7C7FC06460DE02868C7
:100F000040F48030F4E740F480202860F7E700BF29
:100F1000FFF7BAFC801B642873D828688003F7D5D4
:100F20000CE0FFF7B1FC064605E000BFFFF7ACFCA4
:100F3000801B6428F0D828688003F7D42078DFF875
:100F4000AC8280074FF0000A3ED5A748001D01681B
:100F500011F00C0F08D00068C0F3810002280BD1FB
:100F6000D9F80000400207D42868800716D5E06849
:100F7000012800D112E033E1E068B8B10120C8F8DF
:100F80000000FFF781FC064605E000BFFFF77CFC90
:100F9000801B0228C0D828688007F7D528682169F7
:100FA00020F0F80040EAC10028600DE0C8F800A079
:100FB000FFF76AFC064604E0FFF766FC801B022888
:100FC0001FD828688007F7D42078000722D5864FDD
:100FD00087486169703771B101210160FFF754FCE6
:100FE000064604E0FFF750FC801B022809D8386849
:100FF0008007F7D50EE0C0F800A0FFF745FC0646D5
:1010000005E082E0FFF740FC801B02287DD83868AD
:101010008007F7D42078400768D5DFF8CCB10027E7
:101020000BF13C0BDBF80000C0000BD4DBF8001028
:1010300041F08051CBF80010DBF80000012700F0F0
:10104000805000906B4E3068C00510D4306840F47A
:1010500080703060FFF718FC009005E0FFF714FC8B
:101060000099401A022850D83068C005F6D55E4E67
:10107000A0686C3601280FD00528306810D020F009
:1010800001003060306820F004003060A068B8B122
:10109000FFF7FAFB00900FE0306840F00100F4E742
:1010A00040F004003060F7E7FFF7EEFB0099411ACB
:1010B00041F28830814266D830688007F4D50EE06E
:1010C000FFF7E2FB009007E0FFF7DEFB0099411A13
:1010D00041F28830814256D830688007F4D42FB16D
:1010E000DBF8001021F08051CBF80010A069C8B3E4
:1010F0003D49091D0968C1F3810102294AD002282E
:10110000504607D0C8F8600000E03CE0FFF7BCFBA9
:1011100004463BE04746C8F86000FFF7B5FB0646CB
:1011200005E000BFFFF7B0FB801B02282BD8286822
:101130008001F7D4D4E907010843A16A2E4A49087F
:1011400002EB0141626A41EA8211084394F82C10D3
:1011500040EA0161C9F8001001203866FFF794FBEE
:10116000044606E03EE000BFFFF78EFB001B0228AE
:1011700009D828688001F7D534E000BFFFF784FB69
:10118000001B022802D90320BDE8F88F28688001DF
:10119000F4D427E00128F7D0D9F80000E26900F480
:1011A000800191421CD1226A00F03F01914217D187
:1011B00047F6C071626A0140B1EB821F10D1A26A8A
:1011C0004FF0FF3300F4403103EB5202B1EB024F1A
:1011D00006D194F82C1000F07060B0EB016F01D0D4
:1011E0000120D1E70020CFE7043802400000474249
:1011F000800E4742007000400000FFFF70B5040001
:1012000009D0606A002540B125616561A56294F846
:10121000510040B10CE0012070BD6068B0F5827FE4
:10122000F4D0E561F2E784F85050204600F044F82D
:10123000022084F851002068016821F0400101601B
:10124000A088218900F4827001F404410843A18937
:1012500001F400610843217C01F002010843217D73
:1012600001F001010843218B01F400710843217F43
:1012700001F03801084394F8201001F08001084380
:10128000218D01F40051084321680860A069042100
:1012900001EA104094F8241001F01001084321687D
:1012A00048602068C16921F40061C1616565012061
:1012B00084F85100002070BD70B586B0044614213A
:1012C0006846FFF71CF9234E2268002122480223BA
:1012D00003240525B2421AD11F4A1432166846F477
:1012E00080561660126802F480520592026842F03D
:1012F00001020260006802AA00F00100059082E885
:101300003200E020CDE90003694614481DE0144E88
:10131000B2421CD1104A1032166846F4804616605C
:10132000126802F480420592026842F002020260F2
:10133000006802AA00F00200059082E832004FF433
:101340006040CDE9000369460648FFF7A7F906B0FB
:1013500070BD000000300140303802400000024003
:1013600000380040000402402DE9F84F9846164628
:101370008A460446FFF788FA814694F8510001280E
:101380001ED1BAF1000F73D0002E71D094F8500026
:10139000012815D0012784F85070032084F85100EB
:1013A00000256565C4F830A0A686E686A563A587F6
:1013B000E58765642564A068B0F5004F03D00CE0B4
:1013C0000220BDE8F88F2068016821F0400101602B
:1013D0002068016841F48041016020680168490685
:1013E00003D4016841F040010160E068B0F5006F8E
:1013F000606803D048B3012E27D047E008B1012E22
:101400001FD1206B21680088C86006E020688168D1
:10141000890709D5216B0988C160206B801C206376
:10142000E08E401EE0860CE0FFF72EFAA0EB0901EB
:10143000414503D3B8F1FF3F03D035E0B8F1000FC9
:1014400032D0E08E0028E1D123E0206B21680078C3
:10145000087306E02068816889070AD5216B09783E
:101460000173206B401C2063E08E401EE0860DE07F
:101470002BE0FFF709FAA0EB0901414503D3B8F1CE
:10148000FF3F03D010E0B8F1000F0DD0E08E002830
:10149000E0D14A464146204600F06AFD08B12020CE
:1014A0006065A06830B109E084F8517084F850504C
:1014B000032086E72068C1688068009084F8517036
:1014C00004F8505F60680028F3D0012079E7704786
:1014D0007047000070B590F83C20012A2CD0012400
:1014E00080F83C40022280F83D2003685A689D68DD
:1014F00022F070060A6832435A60104B02689A4222
:101500000ED0B2F1804F0BD00D4B9A4208D00D4B4C
:101510009A4205D00C4B9A4202D00C4B9A4204D10D
:10152000496825F080031943916080F83D4000210F
:1015300080F83C10084670BD022070BD00000140DC
:101540000004004000080040000C00400040014042
:1015500010B5040003D094F83D0010B107E001205D
:1015600010BD002084F83C00204600F01FF8022047
:1015700084F83D00211D206800F01CFF012084F844
:10158000460084F83E0084F83F0084F8400084F868
:10159000410084F8420084F8430084F8440084F851
:1015A000450084F83D00002010BD000008B500682B
:1015B000B0F1804F08D10548016841F00101016098
:1015C000006800F00100009008BD000040380240B3
:1015D00090F83D10012901D001207047022180F8C8
:1015E0003D100168CA6842F00102CA6000680E49F5
:1015F00088420ED0B0F1804F0BD00C49884208D001
:101600000B49884205D00B49884202D00A498842DA
:1016100004D1816801F00701062903D0016841F077
:1016200001010160002070470000014000040040FB
:1016300000080040000C00400040014070B5044626
:1016400090F83C000025012817D0012684F83C6062
:10165000022084F83D002068826822F0770222F49C
:101660007F4282600868502838D00DDC20284FD097
:1016700005DC90B3102811D14AE0022070BD30285B
:1016800046D040280AD13BE060282FD070280DD0EA
:10169000B0F5805F03D0B0F5005F12D0012584F86B
:1016A0003D60002084F83C00284670BDCB68D1E93D
:1016B0000121206800F0DBFE2068816841F077019D
:1016C00009E0CB68D1E90121206800F0D0FE206854
:1016D000816841F480418160E1E719E0CA684968A6
:1016E000206800F079FF5021206806E0CA68496848
:1016F000206800F082FF6021206800F0C2FECEE783
:10170000CA684968206800F067FF40212068F4E754
:10171000226801461046F0E770472DE9F041044683
:101720000068C66805694FF00007A90713D5B1071F
:1017300011D5F91E0161012020772068806980079A
:10174000204602D0FFF7E8FF04E000F0A5F82046AD
:1017500000F037F92777680716D5700714D5216888
:101760006FF004000861022020772068806910F47F
:10177000407F204602D0FFF7CFFF04E000F08CF856
:10178000204600F01EF92777280715D5300713D516
:1017900021686FF008000861042020772068C06984
:1017A0008007204602D0FFF7B7FF04E000F074F88E
:1017B000204600F006F92777E80616D5F00614D57E
:1017C00021686FF010000861082020772068C06948
:1017D00010F4407F204602D0FFF79EFF04E000F0A7
:1017E0005BF8204600F0EDF82777E80708D0F0070F
:1017F00006D021686FF001000861204600F03AF938
:10180000280608D5300606D521686FF080000861EB
:101810002046FFF75CFE680608D5700606D52168ED
:101820006FF040000861204600F02EF9A8060AD5A6
:10183000B00608D521686FF0200008612046BDE899
:10184000F041FFF745BEBDE8F081000010B586B05D
:10185000044614216846FEF752FE2068B0F1804F1E
:1018600014D10B480021026842F0010202600068B6
:1018700000F00100059002200090CDE90101012057
:10188000CDE9031069460348FEF708FF06B010BD16
:101890003038024000000240704770B5044690F8AE
:1018A0003C0000260D4601280FD0012084F83C00A2
:1018B0006AB1042A1DD0082A2FD00C2A3FD0012655
:1018C000002084F83C00304670BD022070BD2068C6
:1018D00000F0E0FD2068816941F008018161206825
:1018E000816921F004018161206881692A691143BD
:1018F00011E0206800F0F6FD2068816941F4006184
:1019000081612068816921F4806181612068816939
:101910002A6941EA02218161D2E7206800F00EFEC7
:101920002068C16941F00801C1612068C16921F0E6
:101930000401C1612068C1692A69114311E020686E
:1019400000F028FE2068C16941F40061C16120688F
:10195000C16921F48061C1612068C1692A6941EAD5
:101960000221C161ACE710B5040003D094F83D003A
:1019700010B107E0012010BD002084F83C00204693
:1019800000F01EF8022084F83D00211D206800F0C0
:1019900011FD012084F8460084F83E0084F83F00E1
:1019A00084F8400084F8410084F8420084F8430041
:1019B00084F8440084F8450084F83D00002010BD00
:1019C0007047704710B50446022249B104290ED071
:1019D000082913D094F84100012816D0012010BD29
:1019E00094F83E000128F9D184F83E200FE094F8E5
:1019F0003F000128F2D184F83F2008E094F840002D
:101A00000128EBD184F8402001E084F84120012234
:101A1000206800F01FFD12492068884203D1426C03
:101A200042F400424264206888420ED0B0F1804FF8
:101A30000BD00C49884208D00B49884205D00B498D
:101A4000884202D00A49884204D1816801F0070126
:101A5000062903D0016841F001010160002010BD9A
:101A6000000001400004004000080040000C00405D
:101A70000040014000680349884201D1FFF732B8B5
:101A800070470000000C0040704770B5040004D09F
:101A900094F84100002510B106E0012070BD84F8E3
:101AA0004050204600F024F8242084F841002068AB
:101AB000C16821F40051C160204600F0D7FD2068C4
:101AC000016921F4904101612068416921F02A01F6
:101AD00041612068C16841F40051C1606564202003
:101AE00084F8410084F842006563002070BD000066
:101AF000F0B587B0044614216846FEF700FD1F4F7D
:101B0000236800221E490224032507261D48BB42E4
:101B100013D11B4B14331F6847F010071F601B685D
:101B200003F0100305930B6843F001030B60096891
:101B300001F001010591690215E0134FBB421AD172
:101B40000F4B10331F6847F400371F601B6803F406
:101B5000003305930B6843F001030B60096801F043
:101B6000010105910C21CDE9001402AB694683E81F
:101B70006400FEF793FD07B0F0BD000000100140C7
:101B80003038024000000240004400402DE9F84394
:101B9000044690F84100984616460D46202802D08B
:101BA0000220BDE8F88385B17EB100206064212069
:101BB00084F84100FEF768FEA6848146E684A068AA
:101BC0002027B0F5805F02D003E00120E9E720691B
:101BD00010B12E4600250EE000260CE080212046A4
:101BE00000F0CAFDA8B9C6B116F8010B216848601B
:101BF000E08C401EE084E08C4B464FF00002CDF8B4
:101C000000800028EAD14FF04001204600F0B4FDEA
:101C100040B184F841700320C3E735F8020BC0F3EC
:101C20000800E3E784F841700020BAE7FEE700000F
:101C300010B5044A0021044800F09AFE03490860E8
:101C400010BD0000D0400008E52200080000002080
:101C50002DE9F04186B014216846FEF750FC394862
:101C60000024016841F004010160016801F00401F1
:101C70000591016841F080010160016801F0800177
:101C80000591016841F001010160016801F0010165
:101C90000591016841F0020101600068012200F035
:101CA0000200294E5503059029463046FEF7E6FD11
:101CB000DFF89880012210214046FEF7DFFD244F17
:101CC000002201213846FEF7D9FD012241F202111E
:101CD0003846FEF7D3FD00950125CDE9015469464C
:101CE00030460394FEF7DAFCCDE9005469464046DD
:101CF0000295FEF7D3FC10200090CDE9015469460F
:101D000040460394FEF7CAFC41F203100090CDE96F
:101D10000154694638460394FEF7C0FC3420CDE9EF
:101D20000004694638460294FEF7B8FC4FF40140BF
:101D3000CDE90004694640460294FEF7AFFC06B0C8
:101D4000BDE8F08130380240000802400000024047
:101D5000000402400D4810B50B4901600C49416078
:101D600000214FF480428160C0E90312416181612A
:101D7000C1610162FEF78EFD002803D0BDE810406E
:101D8000FEF777BC10BD0000005400409400002016
:101D9000A08601000D4810B50B4901600C49416057
:101DA00000214FF480428160C0E9031241618161EA
:101DB000C1610162FEF76EFD002803D0BDE810404E
:101DC000FEF757BC10BD000000580040E80000209E
:101DD000A0860100104810B50E4901604FF48271D1
:101DE000416000218160C1604FF400720161C0E96F
:101DF00005123822C0E90721416281620A21C162CD
:101E0000FFF7FCF9002803D0BDE81040FEF731BC15
:101E100010BD0000003001403C010020104810B50A
:101E20000E4901604FF48271416000218160C16000
:101E30004FF400720161C0E905120822C0E90721D0
:101E4000416281620A21C162FFF7D8F9002803D0FC
:101E5000BDE81040FEF70DBC10BD0000003800408A
:101E60009401002010B58EB00024079408940994C2
:101E70000A940B941C2168460C94FEF740FB1E4804
:101E80004FF08041016040F2E731C0E90114632165
:101E9000C0E903148461FFF75BFB08B1FEF7E9FBBF
:101EA0004FF48050079007A91348FFF7C7FB08B10C
:101EB000FEF7DFFB1048FFF756FD08B1FEF7D9FB30
:101EC0000B940BA90C480C94FFF704FB08B1FEF728
:101ED000D0FB602000903220CDE901040422694645
:101EE00005480494FFF7D9FC08B1FEF7C2FB02488D
:101EF000FFF7ACFC0EB010BDEC0100200C4810B593
:101F00000A4901604FF4E1314160002181600C22F7
:101F1000C160C0E904128161C161FFF7B6FD00280C
:101F200003D0BDE81040FEF7A4BB10BD0010014077
:101F3000340200200C4810B50A4901604FF4E13129
:101F40004160002181600C22C160C0E904128161FE
:101F5000C161FFF79AFD002803D0BDE81040FEF7ED
:101F600088BB10BD004400407C020020FEE7FEE775
:101F7000F8B515460E460B46009204460122022192
:101F800000F02CF8A0B9134813490068B0FBF1F039
:101F90004FF47A71484300906068B0F5827F0DD1AC
:101FA0003346002280212046009500F017F870B1DA
:101FB000606D40F0200060650320F8BD009830B1EE
:101FC000401E009020688068C0430006F6D50020BF
:101FD000F8BD00001000002000366E012DE9F84326
:101FE0001E46914688460446089DFEF74DFC401B60
:101FF000351AFEF749FC074626480068C0F3CB3087
:1020000068430AE0701C09D0FEF73EFCC01BA842E2
:102010000FD275B10098B8B3401E00902068816857
:1020200038EA010033D000214945EBD10020BDE85A
:10203000F8832068416821F0E00141606068B0F5F4
:10204000827F0BD1A068B0F5004F02D0B0F5806F51
:1020500004D12068016821F040010160A06AB0F558
:10206000005F09D12068016821F4005101602068F7
:10207000016841F400510160012084F85100002002
:1020800084F850000320D2E7FFE70025C6E70121CE
:10209000CAE70000100000202DE9FF41050AC6B282
:1020A00020A004220068019001A92A2000F0EEF887
:1020B0001CA004220068029002A92B2000F0E6F880
:1020C000DFF864800022022144464046FEF7D6FB3A
:1020D000002201212046FEF7D1FB2C208DF80C00B8
:1020E0000A23012203A91148FFF73EF901221146F4
:1020F0002046FEF7C3FB0E4F002400BF8DF80050B2
:102100008DF801600A23022269460848FFF72CF97E
:10211000641CBC42F2D3012202214046FEF7AEFB12
:10212000BDE8FF81000000EF000402403C010020F8
:10213000800601001FB5494C002204212046FEF70D
:102140009DFB0A20FEF798FA012204212046FEF7A3
:1021500095FB7820FEF790FA00221146112000F03E
:1021600095F87820FEF788FA00208DF8000001220B
:102170006946362000F08AF805208DF8000001221B
:1021800069463A2000F082F835A10522D1E9000124
:10219000CDE900016946B22000F078F835208DF8CD
:1021A000000001226946B72000F070F819208DF870
:1021B000000001226946BB2000F068F82C208DF851
:1021C000000001226946C02000F060F801208DF86F
:1021D000000002466946C22000F058F812208DF82F
:1021E000000001226946C32000F050F820208DF83D
:1021F000000001226946C42000F048F80F208DF845
:10220000000001226946C62000F040F816A0022214
:10221000006800906946D02000F038F813A00FC87D
:102220008DE80F000E226946E02000F02FF813A37E
:102230000FCB8DE80F000E226946E12000F026F852
:1022400000221146212000F021F804B00022BDE850
:1022500010401146292000F019B800000004024087
:102260000C0C003333000000A4A10000D0040D11B9
:10227000132B3F544C180D0B1F230000D0040C11DE
:10228000132C3F44512F1F1F20230000F7B5134E7E
:1022900014460D46002202213046FEF7EFFA0022D6
:1022A00001213046FEF7EAFA0A23012269460C486A
:1022B000FFF75AF85CB155B1012211463046FEF7DE
:1022C000DDFA0A23224629460548FFF74DF8012288
:1022D00002213046FEF7D2FAFEBD000000040240A3
:1022E0003C010020012000F007FBFBE710B54FF098
:1022F000E020006901F030FD012803D0BDE8104066
:1023000001F05EBA10BD000030B593B030216846D0
:10231000FEF7F5F814210CA8FEF7F1F81C4800258B
:10232000016841F080510160006800F08050119018
:102330001848016841F4404101600068022400F43B
:102340004040119001200090000401908001CDE9EF
:1023500006400C2008906020CDE9090404200B9071
:102360006846FEF795FD08B172B6FEE70CA90F208E
:1023700081E831004FF48050CDE90F0503210CA80E
:10238000FEF77AFC002801D072B6FEE713B030BD2C
:1023900040380240007000400248016841F470017A
:1023A0000160704788ED00E00148FFF7B6B9000012
:1023B000C4020020F0B502681F4B204C204D214E76
:1023C0004FF0804C984207D0604505D0A04203D022
:1023D000A84201D0B04203D122F070074A683A43C4
:1023E000984210D060450ED0A0420CD0A8420AD02E
:1023F000B04208D0144CA04205D0144CA04202D0E8
:10240000134CA04203D122F44074CA6822434C69A1
:1024100022F0800222438C68C4620C688462984275
:1024200001D109690163016841F0040101600121E2
:1024300041610260F0BD0000000001400004004066
:1024400000080040000C00400040014000440140F2
:102450000048014010B501F01F030121046A9940B2
:102460008C430462016A9A401143016210BD10B5A9
:10247000846842EA032224F47F440A4322438260B0
:1024800010BD826822F070020A4342F007018160A9
:102490007047000030B5036A026A22F0010202624E
:1024A0004268846924F073050C682C4323F002050C
:1024B0008B682B430A4DA8420BD123F00805CB684B
:1024C00022F440722B434D6923F0040315438A69BB
:1024D0002A434260846149684163036230BD000061
:1024E0000000014030B5026A036A23F01003036262
:1024F000436884690D6824F4E64444EA05248D6841
:1025000022F0200242EA05120B4DA8420ED1CD68FE
:1025100022F0800242EA05124D6923F4406343EA47
:1025200085038D6922F0400243EA8503436084619C
:1025300049688163026230BD0000014030B5036A22
:10254000026A22F4807202624268C46923F4007352
:1025500024F073050C682C438D6843EA05230C4D69
:10256000A8420ED1CD6823F4006343EA05234D69E8
:1025700022F4405242EA05128D6923F4806342EA54
:1025800005124260C4614968C163036230BD000046
:102590000000014030B5046A026A22F480520262EF
:1025A0004268C3690D6823F4E64343EA05238D6856
:1025B00024F4005444EA0534064DA84204D14D6980
:1025C00022F4804242EA85124260C3614968016494
:1025D000046230BD0000014010B5036A046A24F0B3
:1025E00001040462846924F0F00444EA021423F034
:1025F0000A020A438461026210BD10B5036A046ACC
:1026000024F010040462846923F0A00324F47044CD
:1026100044EA023243EA01118261016210BD01689D
:102620000C3151E8002F22F4907241E80023002B76
:10263000F5D10168143151E8002F22F0010241E880
:102640000023002BF5D1016B012909D101680C3160
:1026500051E8002F22F0100241E80023002BF5D1B1
:10266000202180F8421000210163704770B50446B4
:1026700000680169E26821F4405111430161216958
:10268000A068E26908436169114308432168CA6888
:1026900049F20C639A430243CA6020684169A26907
:1026A00021F440711143416131492068884202D0D0
:1026B0003049884202D1FEF7A9FB01E0FEF796FB04
:1026C000E2690023192164253226B2F5004F6268C1
:1026D00028D0A0FB0101930F9200FDF72DFE0146CB
:1026E000B0FBF5F06FF01802504301EB800006EBF1
:1026F0000010B0FBF5F000F0F002B1FBF5F002EBDA
:102700000012B1FBF5F06FF01803584301EB8000A5
:1027100006EB0010B0FBF5F000F00F00216810444C
:10272000886070BDA0FB010192185B41FDF704FEBB
:102730000146B0FBF5F00201B1FBF5F06FF01803B4
:10274000584301EB800006EBC000B0FBF5F000F051
:10275000F80002EB4002B1FBF5F0584301EB8000BA
:1027600006EBC000B0FBF5F000F00700D6E7000074
:1027700000100140001401402DE9F8439846174627
:102780000D460446089E24E0701C22D0FEF77CF81B
:10279000A0EB0800B0421AD8CEB12068C168490742
:1027A00017D5802D15D0402D13D00168C9430907D6
:1027B0000FD401680025406800902046FFF72FFFE6
:1027C0000820606484F840500120BDE8F8830320AD
:1027D000FBE72068006835EA000004D00020B8421A
:1027E000D2D00020F1E70120F9E7FEE70907090E42
:1027F000002804DB00F1E02080F80014704700F0AE
:102800000F0000F1E02080F8141D70471FB5FEF79F
:1028100071F9FFF779FDFFF71BFAFFF79BFAFFF756
:10282000B9FAFFF7D7FAFFF7F9FAFFF71BFBFFF743
:1028300065FBFFF77FFB22A30FCB8DE80F006846F7
:10284000FDF7F1FD82B24FF47A7369462048FFF735
:102850009DF904211F48FFF7B5F81E4C5020216850
:1028600088631D4E4FF40055002229463046FEF77E
:1028700005F8C820FDF700FF012229463046FDF784
:10288000FDFFFFF757FC04212046FFF79BF8216866
:102890003220886364230C2210A10D48FFF776F9DB
:1028A0001F20FFF7F9FB64230A2210A10848FFF755
:1028B0006DF900F02FF8FFF7BBF900F03DF8FEE7E7
:1028C000586959616E6757617463680D0A000000AA
:1028D0007C020020EC0100200008024046696C6C7C
:1028E0002053746172740D0A0000000046696C6C1C
:1028F00020456E640D0A000010B5EFF3058111B19B
:102900006FF0050403E0002408B100F0F9FD204653
:1029100010BD0000EFF3058010B16FF005007047A7
:102920000448016811B14FF0FF3070470121016088
:10293000002070476400002010B5EFF3058010B14F
:102940006FF0050010BD08480168012902D04FF062
:10295000FF3010BD054A002182F8141D02210160DC
:1029600000F036FE002010BD640000200BE000E007
:102970002DE9FF414FEA01034FF00005EFF3058118
:10298000039549BB40B38027182100244AB3166839
:1029900006B1344696691EB13146761E382E02D2F3
:1029A0001679F60703D0002004B0BDE8F08156691F
:1029B00006B1B708D2F808C0BCF1000F0DD0D56839
:1029C0005C2D18D312693AB136B18DE806103A463B
:1029D000214601F096F903900DE0D6685EB91269C0
:1029E0004AB903AACDE90012BAB2214601F05CF956
:1029F000012800D003950398D6E700002DE9F041A7
:102A0000134C0F460546E6682068001D00F044FCA4
:102A1000681C07D137B12168BDE8F0410D48091D98
:102A200000F08ABC20683544B5424560216805D273
:102A3000A06BBDE8F041091D00F066BC606B091D8C
:102A400000F062FCA06A854200D2A562BDE8F08178
:102A500014000020FC0700202DE9F041054600F09D
:102A600077FC2D4CA068401CA06020682B4F10B153
:102A7000606930B32BE02560A068012827D10026CB
:102A800006EB860007EB800000F030FC761C382E49
:102A9000F6D3234800F02AFC2148143000F026FC2D
:102AA0001F48283000F022FC1D483C3000F01EFC7E
:102AB0001B48503000F01AFC194860631430A063C2
:102AC00005E02068E96AC06A884200D82560606A2B
:102AD000401C60626864E86A2169884200D920610C
:102AE00000EB800007EB8000291D00F025FC00F0C2
:102AF0004FFC606900280CD02068E96AC06A8842EF
:102B000007D208494FF080500860BFF34F8FBFF3E2
:102B10006F8FBDE8F0810000140000204C030020FE
:102B2000AC07002004ED00E038B500F011FC104CBB
:102B30002068C8B90F4800F0D9FB0E48143000F0E7
:102B4000D5FB0C48E060143020610A4B0020F03BBC
:102B5000009003F1500210210A2000F047FE20608F
:102B600010B105A100F096FCBDE8384000F010BCA3
:102B70005000002000090020546D72510000000038
:102B800030B4026C0B46002A0BD0C1681144C160FE
:102B90008468A14201D30168C16030BC1846FDF7CA
:102BA00061BC30BC70472DE9F041856B1746044687
:102BB0000026026C82B1C7B1E068FDF753FCE16802
:102BC000206C091AE1602268914202D2A168081AB9
:102BD000E060022F16D017E02068A8B9A06801F0C5
:102BE00033F906460020A0600EE06068FDF73AFC6D
:102BF000216C606808446060A168884204D3206842
:102C0000606001E005B16D1E6D1CA5633046BDE836
:102C1000F08110B5044690F8590058B101280CD045
:102C200002280FD0502080F31188BFF34F8FBFF3DD
:102C30006F8FFEE7206B00F0BFFB2046BDE8104021
:102C400000F0BABB10BD000010484FF470514207AD
:102C500006D0C01D0D4920F00700411AC1F5705182
:102C60000B4A00230144C2E900030839183A21F055
:102C7000070111604B600B600B1AC0E900139360F1
:102C80004FF000405360506170470000E00F00209B
:102C900080000020144E154CA6F29C474FF080583F
:102CA000DFF84C9012E000BF00F052FBF068C568FE
:102CB000281D00F0F1FAA068401EA0606068401E68
:102CC000606000F065FB2846FFF7A3FF60680028FE
:102CD000EAD138680128F9D9C9F80080BFF34F8FCD
:102CE000BFF36F8FF2E70000E80700201400002018
:102CF00004ED00E070B51D46049C51B1C4F80020FD
:102D0000C4E90F010121204600F0A4FD84F84C50D5
:102D100070BD2460F4E700002DE9F05F8846DDE92E
:102D20000B941546834691009A460A9EA522206B75
:102D3000FDF7DDFB6FF00301206B01EB850108441B
:102D400020F00707780707D0502080F31188BFF3E1
:102D50004F8FBFF36F8FFEE70025B8F1000F0FD044
:102D60005FF00000221818F8001082F8341018F8EC
:102D7000001011B1401C1028F4D384F8435001E036
:102D800084F83450382E00D33726E662C4E9136540
:102D9000201D00F0B6FA04F1180000F0B2FA246128
:102DA000C6F138006462A061656584F858505246E7
:102DB0005946384600F05AFA2060B9F1000F01D0A8
:102DC000C9F80040BDE8F09F30B5114900E0114658
:102DD0000A688242FBD34B685C18844203D1406886
:102DE00018444860084643681C18944209D1084CAE
:102DF000183C2468A24209D052681A4442600A680A
:102E000012680260814200D0086030BD0460F9E7BA
:102E10008000002070B5002441600B4D006191429C
:102E200006D8D11A8269914206D2011D286907E0AD
:102E30009A4203D2994201D3012403E0011DE868BC
:102E400000F062FA204670BD5000002010B5044624
:102E500000F07EFAA06B28B15FF0000400F098FA51
:102E6000204610BD0124F9E730B589B03C4D6EE035
:102E70000498002806DADDE90601059A90470498CF
:102E8000002864DB069C606910B1201D00F004FA84
:102E900003A800F0D7F8024604980A2857D2DFE8C2
:102EA00000F00505052D334A05052D3394F828005B
:102EB00040F0010084F828000599A069059B0144B1
:102EC0002046FFF7A7FF68B3216A2046884794F899
:102ED000280040073BD5002000900598A1690023F9
:102EE00042181946204601F0B9F8D8B9502080F3AD
:102EF0001188BFF34F8FBFF36F8FFEE714F8280FD1
:102F000020F00100207022E094F8280040F0010039
:102F100084F828000598A06128B18118134620463E
:102F2000FFF778FF13E0502080F31188BFF34F8F35
:102F3000BFF36F8FFEE794F82800810703D4204683
:102F400000F03AFA03E020F0010084F828000022A3
:102F500004A9286800F0D2FD002889D109B030BD4D
:102F6000500000202DE9FC410F46054600F074FB9F
:102F700001A800F067F80446019818B100F0DCFFE2
:102F8000BDE8FC81254EAFB130690068D0B30027A1
:102F9000291B3A46306800F091FA00F0CDFF002876
:102FA000EED11F494FF080500860BFF34F8FBFF341
:102FB0006F8FE5E7A542EBD800F0BEFFF06827462B
:102FC000C068C468201D00F067F994F82800410724
:102FD00019D5A0692B4641193A462046FFF71AFF3A
:102FE000A8B100200346014600902A46204601F081
:102FF00035F860B9502080F31188BFF34F8FBFF3CD
:103000006F8FFEE707E020F0010084F82800216AB6
:1030100020468847B4E70127BAE7000050000020A7
:1030200004ED00E00648416B096829B1416BC968AD
:10303000C9684968816270474FF0FF31FAE70000C4
:103040001400002070B5054600F094FE064E0446BC
:10305000B068844203D200F009F8012000E00020AB
:1030600028602046B46070BD50000020F8B5194DAE
:1030700020E0C068C4680668201D00F00DF9216AD0
:103080002046884794F82800400713D5A0693044AB
:10309000B04206D924616060211DE86800F034F96F
:1030A00008E000200346014600903246204600F02A
:1030B000D5FF38B1E86801680029DAD12969C5E986
:1030C0000310F8BD502080F31188BFF34F8FBFF37A
:1030D0006F8FFEE75000002008484068401C4FF00A
:1030E000500080F3118804D0BFF34F8FBFF36F8F70
:1030F000FEE7BFF34F8FBFF36F8FFEE7880000201E
:10310000074CE068016841B1C0680021D0F80000B8
:10311000FFF728FFFFF7A8FEF3E701210020F7E7FC
:10312000500000202DE9F041044600F011F994F917
:10313000455004F1240609E0606A48B1304600F0C9
:10314000C3FE08B100F00AFA6D1E6DB2002DF3DC6B
:103150004FF0FF3684F8456000F01AF900F0F8F8F7
:1031600094F9445004F1100709E0206948B1384649
:1031700000F0AAFE08B100F0F1F96D1E6DB2002D4D
:10318000F3DC84F84460BDE8F04100F001B90000D0
:103190002DE9F0410546002700F05EFA324E306816
:1031A00008B9FFF751FD706905424ED1C5B3083526
:1031B00068070ED005F00700C0F108000544680755
:1031C00007D0502080F31188BFF34F8FBFF36F8F6C
:1031D000FEE72DB37068854237D823481830014682
:1031E0000C6801E020460C466168A94202D22168C1
:1031F0000029F7D131688C4227D007682168016027
:1032000060680837411B10290FD96019420708D0A0
:10321000502080F31188BFF34F8FBFF36F8FFEE70D
:1032200013E041606560FFF7CFFD61687068401A88
:103230007060B268904200D2B060706901430020B3
:10324000C4E90001F068401CF06000F075FE7807EA
:1032500007D0502080F31188BFF34F8FBFF36F8FDB
:10326000FEE73846BDE8F0816800002010B5031F76
:103270004FF080741C601B1F21F001011960191FA1
:10328000044B0B6014390A60091F6FF002024438C6
:103290000A6010BDD9300008D0E9013201699A6096
:1032A000D0E901235A604A68824201D182684A60AB
:1032B000002202610868401E08600868704700002C
:1032C000034B036003F15C000860802010607047CE
:1032D00028090020044B036003F15C0008604FF4F0
:1032E0008070106070470000840B002000F108011E
:1032F0004FF0FF32C0E90112C1600161002101609D
:10330000704700210161704730B50B685A1C02D02C
:1033100000F1080202E0026904E0224654682568D0
:103320009D42FAD953684B6099608A605160086188
:103330000168491C016030BD42684A6093688B6037
:1033400093685960916008610168491C0160704789
:10335000502080F31188BFF34F8FBFF36F8F0A495E
:103360004868401C486001280CD10848006810F0EB
:10337000FF0F07D0502080F31188BFF34F8FBFF3AA
:103380006F8FFEE7704700008800002004ED00E02A
:103390000849486828B1401E486001D180F311886F
:1033A0007047502080F31188BFF34F8FBFF36F8FAA
:1033B000FEE700008800002070B500282AD0164DD6
:1033C000A0F1080460686969084207D1502080F3C1
:1033D0001188BFF34F8FBFF36F8FFEE722683AB1BA
:1033E000502080F31188BFF34F8FBFF36F8FFEE73C
:1033F0008843606000F030F960686968084468607C
:103400002046FFF7E1FC2869401C2861BDE87040B8
:1034100000F092BD70BD0000680000204FF0E02079
:1034200000210161816105494FF47A720968B1FB9D
:10343000F2F1491E4161072101617047100000202F
:1034400010B5FCF755FF114910280ED300F1E0200C
:1034500090F8F0030A78904207D2502080F3118848
:10346000BFF34F8FBFF36F8FFEE70948006889688D
:1034700000F4E060884207D9502080F31188BFF340
:103480004F8FBFF36F8FFEE710BD00008800002054
:103490000CED00E010B5084B002200BF53F832409D
:1034A0001CB1521C082AF9D310BD43F8321003EBAB
:1034B000C201486010BD00000C03002070B5154625
:1034C0000E460446FFF744FF94F944100020491CBF
:1034D00001D184F8440094F94510491C01D184F8C5
:1034E0004500FFF755FFA06B28B92A46314604F185
:1034F000240000F051F82046BDE87040FFF712BEEE
:1035000010B5020014D00F48006B38B1502080F382
:103510001188BFF34F8FBFF36F8FFEE700F09CF869
:1035200000211046FFF76AFA00F006FD002807D1D7
:1035300005494FF080500860BFF34F8FBFF36F8F86
:1035400010BD00001400002004ED00E002490A6AEA
:103550000260C968416070471400002001490120E1
:10356000C86170471400002010B50C4650B10949DD
:1035700009681831FFF7C8FE2046BDE81040012158
:10358000FFF73CBA502080F31188BFF34F8FBFF391
:103590006F8FFEE71400002070B514460D4668B129
:1035A0000A4909681831FFF7C7FE0CB14FF0FF3523
:1035B00021462846BDE87040FFF720BA502080F32E
:1035C0001188BFF34F8FBFF36F8FFEE71400002009
:1035D00030B587B00024039405AA04A903A8049475
:1035E000FFF76EFEDDE903010094CDE90110002331
:1035F00015A11748059A00F084FB164D0028E862D3
:103600001FD000F0FBFC012809D0401C19D150202C
:1036100080F31188BFF34F8FBFF36F8FFEE7502009
:1036200080F31188BFF34F8FBFF36F8F4FF0FF30E0
:10363000A86201206861EC6007B0BDE8304000F08E
:1036400045B807B030BD000049444C4500000000BB
:10365000952C0008140000200248016B491C0163EE
:103660007047000014000020164810B5016B11B11E
:103670000121C16110BD0021C1610169124A01E04F
:10368000B9B1491E01EB810352F82330002BF7D06A
:1036900001EB810302EB830202F1080453685B68CB
:1036A0005360A34201D15B685360DA680260016134
:1036B00010BD502080F31188BFF34F8FBFF36F8F81
:1036C000FEE70000140000204C0300201CB5374822
:1036D0000168374A914207D1502080F31188BFF327
:1036E0004F8FBFF36F8FFEE700683149491E884254
:1036F00007D1502080F31188BFF34F8FBFF36F8F36
:10370000FEE72C4908780190FF20087008788DF8B2
:1037100000009DF800009DF8002000F0F0009042AD
:1037200007D0502080F31188BFF34F8FBFF36F8F06
:10373000FEE79DF80000204C00F0500020700720AC
:10374000A06005E09DF8002052008DF80020401E8A
:103750009DF800201206F5D4A060032807D0502061
:1037600080F31188BFF34F8FBFF36F8FFEE74FF4E5
:103770004070A060019808700C482030016841F446
:1037800070010160016841F070410160FFF746FE81
:1037900000206060FCF774FD0848016841F040417A
:1037A0000160FCF759FD00201CBD000000ED00E0A9
:1037B00071C20F4100E400E08800002034EF00E017
:1037C00010B5502080F31188BFF34F8FBFF36F8F78
:1037D00000F0D6FA18B104494FF08050086000207C
:1037E00080F3118810BD000004ED00E038B5049DA1
:1037F00018B153B1CAB181B120E0502080F31188D3
:10380000BFF34F8FBFF36F8FFEE7502080F3118817
:10381000BFF34F8FBFF36F8FFEE7502080F3118807
:10382000BFF34F8FBFF36F8FFEE739B1502080F3A6
:103830001188BFF34F8FBFF36F8FFEE750241C46F4
:10384000012384F846302B460094FFF753FA2046B4
:1038500038BD000070B50D46040025D0FFF778FD97
:10386000D4E90F20216802FB0011A1600021A163AF
:10387000216861600A46D4E90F01401E00FB012166
:10388000E16021464FF0FF3001F8440F487004F129
:1038900010008DB1FFF72AFD04F12400FFF726FD8B
:1038A000FFF776FD012070BD502080F31188BFF333
:1038B0004F8FBFF36F8FFEE721690029F0D000F032
:1038C00003FB0028ECD004494FF080500860BFF3A0
:1038D0004F8FBFF36F8FE3E704ED00E02DE9FF4763
:1038E00082B01D468A464FF00008040003D0BAF1AA
:1038F000000F08D011E0502080F31188BFF34F8FE4
:10390000BFF36F8FFEE7206C38B1502080F3118831
:10391000BFF34F8FBFF36F8FFEE7022D0AD1E06B2D
:10392000012807D0502080F31188BFF34F8FBFF3D9
:103930006F8FFEE700F010FA3F4F4FF000094FF095
:10394000805648B9049838B1502080F31188BFF3ED
:103950004F8FBFF36F8FFEE7FFF7FAFCA06BE16BB1
:10396000884207D3022D05D00498D0B1B8F1000FDA
:103970001AD01EE02A4651462046FFF714F9616A24
:1039800019B104F1240000F09FFA20B13E60BFF3AA
:103990004F8FBFF36F8FFFF7FBFC012006B0BDE830
:1039A000F087FFF7F5FC22E06846FFF7CFFD4FF008
:1039B0000108FFF7EDFCFFF74FFEFFF7C9FC94F994
:1039C0004400401C01D184F8449094F94500401C07
:1039D00001D184F84590FFF7DBFC04A9684600F0AC
:1039E00029F930B12046FFF79DFB00F0A5FA002031
:1039F000D4E7FFF7ADFCA06BE16B884213D1FFF772
:103A0000C7FC04F110000499FFF7AEFD2046FFF754
:103A100089FB00F091FA00289ED13E60BFF34F8FE2
:103A2000BFF36F8F98E7FFF7B3FC2046FFF77AFBF1
:103A300000F082FA90E7000004ED00E02DE9F04785
:103A40001F4690468946040003D0B9F1000F08D004
:103A500011E0502080F31188BFF34F8FBFF36F8FB9
:103A6000FEE7206C38B1502080F31188BFF34F8FF0
:103A7000BFF36F8FFEE7022F0AD1E06B012807D05A
:103A8000502080F31188BFF34F8FBFF36F8FFEE795
:103A9000FFF7D6FC5020EFF3118680F31188BFF3B7
:103AA0004F8FBFF36F8FA06BE16B884206D3022F5D
:103AB00004D0002086F31188BDE8F08794F94550C2
:103AC000A06B3A4649462046FFF76DF8681C04D0C3
:103AD0006D1C84F845500120ECE7606A0028FAD09C
:103AE00004F1240000F0F0F90028F4D0B8F1000F40
:103AF000F1D00121C8F80010EDE700002DE9F747EB
:103B0000002683B08A46040003D0BAF1000F08D023
:103B100011E0502080F31188BFF34F8FBFF36F8FF8
:103B2000FEE7206C38B1502080F31188BFF34F8F2F
:103B3000BFF36F8FFEE700F00FF9DFF8F4804FF06E
:103B400000094FF0805748B9059838B1502080F3EC
:103B50001188BFF34F8FBFF36F8FFEE7FFF7F8FBBE
:103B6000A56BC5B151462046FFF70AF86D1EA56347
:103B7000206950B104F1100000F0A6F928B1C8F88E
:103B80000070BFF34F8FBFF36F8FFFF701FC012071
:103B900006B0BDE8F087059808B11EB106E0FFF752
:103BA000F7FB27E06846FFF7D1FC0126FFF7F0FBA3
:103BB000FFF752FDFFF7CCFB94F94400401C01D104
:103BC00084F8449094F94500401C01D184F8459054
:103BD000FFF7DEFB05A9684600F02CF80028204618
:103BE0000AD0FFF79FFA00F0A7F92046FFF72EF959
:103BF0000028B3D00020CBE7FFF728F990B104F1FB
:103C000024000599FFF7B0FC2046FFF78BFA00F07F
:103C100093F90028A2D1C8F80070BFF34F8FBFF30B
:103C20006F8F9BE72046FFF77DFA00F085F995E757
:103C300004ED00E02DE9F0410C46050011D0C4B1BF
:103C4000FFF786FB174BDA686E682068911B471CEC
:103C500017D02F681B6A9F4219D0964217D80124AB
:103C600010E0502080F31188BFF34F8FBFF36F8FA8
:103C7000FEE7502080F31188BFF34F8FBFF36F8FA3
:103C8000FEE70024FFF784FB2046BDE8F081884270
:103C900005D9401A20602846FFF758FCF1E70020BC
:103CA0002060DCE7140000202DE9FF5F8346DDE99A
:103CB0000E87994616468A469000FFF769FA050076
:103CC0001CD05C20FFF764FA040014D000202563A8
:103CD00084F85900CDE90240CDE900874B463246D1
:103CE00051465846FFF718F82046FEF7B5FE01206A
:103CF00004B0BDE8F09F2846FFF75EFB4FF0FF30B1
:103D0000F6E7F0B585B0DDE90B640A9DA6B1DCB13C
:103D10005C2700972663022684F85960002604AFCA
:103D2000CDE90246CDE90057FEF7F6FF2046FEF743
:103D300093FE049805B0F0BD502080F31188BFF3C6
:103D40004F8FBFF36F8FFEE7502080F31188BFF3D2
:103D50004F8FBFF36F8FFEE70548416919B1006BC4
:103D600018B1002070470120704702207047000002
:103D7000140000200148C0687047000014000020B3
:103D80002DE9F0412E4C0027206B28B1A069401C82
:103D9000A0613846BDE8F081E668761CE66013D184
:103DA000606B006838B1502080F31188BFF34F8FEB
:103DB000BFF36F8FFEE7606BA16B6163A063206A46
:103DC000401C2062FFF72EF9A06ADFF87880864257
:103DD00009D3606B0068A0B1606BC068C568686893
:103DE000864211D2A0622068C06A00EB800158F8B8
:103DF0002100012800D90127E0690028C9D0012746
:103E0000C7E74FF0FF30EDE7281DFFF745FAA86A36
:103E100018B105F11800FFF73FFAE86A21698842F6
:103E200000D9206100EB800108EB8100291DFFF71C
:103E300083FAE86A2168C96A8842CAD30127C8E7B9
:103E4000140000204C03002070B504004FF0000166
:103E500033D01B4D2868844207D0502080F311884E
:103E6000BFF34F8FBFF36F8FFEE7206D38B1401E59
:103E70002065E36CE26A9A421FD040B11DE05020F9
:103E800080F31188BFF34F8FBFF36F8FFEE7201DC4
:103E9000FFF702FAE06CE062C0F13800A061E06A6E
:103EA0002969884200D92861064900EB800001EBAE
:103EB0008000211DFFF740FA0121084670BD000077
:103EC000140000204C03002070B5C068C46854B1D1
:103ED00004F118000646FFF7DFF9144D286B50B1C6
:103EE0003146134815E0502080F31188BFF34F8FFF
:103EF000BFF36F8FFEE7201DFFF7CEF9E06A296957
:103F0000884200D928610B4900EB800001EB80005A
:103F1000211DFFF711FAE06A2968C96A884202D9AF
:103F20000120E86170BD002070BD00001400002079
:103F3000D40700204C0300202DE9F0472C4D00242D
:103F40002746286B38B1FFF703FA286B401E286319
:103F5000286B40B146E0502080F31188BFF34F8FAB
:103F6000BFF36F8FFEE7A968224E0120D1B3A6F5FB
:103F7000916980463068E0B1F068C46804F11800C7
:103F8000FFF78AF9201DFFF787F9E06A296988425F
:103F900000D9286100EB800109EB8100211DFFF7AA
:103FA000CBF9E06A2968C96A8842E3D3C5F81C8066
:103FB000E0E70CB1FFF736F8AC694CB14FEA080600
:103FC000FFF7DEFE00B1EE61641EF9D10020A861AA
:103FD000E86938B10849012738070860BFF34F8FF7
:103FE000BFF36F8FFFF7D4F93846BDE8F0870000C4
:103FF00014000020D407002004ED00E010B586B0C6
:10400000FEF792FD114C2068B8B100200390049097
:1040100005AA04A903A8FFF75DF9DDE90321022041
:104020008DE8070000230AA10B48059AFFF769FEF7
:10403000606010B106B0012010BD502080F31188DF
:10404000BFF34F8FBFF36F8FFEE7000050000020DB
:10405000546D722053766300013100082DE9FF4151
:104060001E46134602000A9D4FF0000016D0144C65
:104070002768002F0FD0CDE900130292062917DA26
:10408000FFF76AFE02284FF000030FD000226946B6
:104090002068FFF723FC04B0BDE8F081502080F3D6
:1040A0001188BFF34F8FBFF36F8FFEE72A46EEE70D
:1040B0000023324669463846FFF7C0FCEBE70000B4
:1040C000500000204FF04070E1EE100A70470000F1
:1040D0000C4100080000000000000000000000008B
:1040E00000000000000200001800000000000000B6
:1040F00000000000000000000000000001020304B6
:1041000006070809000000000102030464656661F7
:10411000756C745461736B00384100080000002016
:1041200094000000D4010008CC4100089400002055
:10413000AC510000F0010008000000000100000088
:1041400010000000000000000024F4000000000047
:10415000000000000000000000000000000000005F
:10416000000000000000000000000000000000004F
:10417000000000000000000000000000000000003F
:10418000000000000000000000000000000000002F
:10419000000000000000000000000000000000001F
:1041A000000000000000000000000000000000000F
:1041B00000000000000000000000000000000000FF
:0C41C00000000000AAAAAAAA000000004B
:040000050800019955
:00000001FF
